:020000041000EA
:10000000002008205D0100101B0100101D010010E0
:100010001101001011010010110100101101001058
:100020001901001019010010190100101F01001022
:10003000110100101901001021010010230100100E
:100040001101001011010010110100101101001028
:100050001101001011010010110100101101001018
:100060001101001011010010110100101101001008
:1000700011010010110100101101001011010010F8
:1000800011010010110100101101001011010010E8
:1000900011010010110100101101001011010010D8
:1000A00011010010110100101101001011010010C8
:1000B00011010010110100101101001011010010B8
:1000C00011010010110100101101001011010010A8
:1000D0001101001011010010110100101101001098
:1000E0001101001011010010110100101101001088
:1000F0001101001011010010110100101101001078
:100100001101001011010010110100101101001067
:10011000EFF30580103800BE00BE00BE00BE00BE7A
:1001200000BE00BEF2EB887180380010AC380010C1
:10013000A001001090A31AE7D3DEFFFF42012110B7
:10014000FF010000903C0000793512AB4FF0000039
:100150001E49086006C881F3088810474FF05040D8
:10016000006810B14FF00000F2E70DA40ECC00299A
:1001700002D000F012F8F9E71549164A002000E015
:1001800001C19142FCD11449884714498847144958
:10019000884700BEFDE701C901C29A42FBD3704700
:1001A000AC380010100100202C060020C83D0010C3
:1001B0000000082000000820C83D001000100820A2
:1001C00000100820000000007047000008ED00E06B
:1001D0002C06002058080020D52E001035020010F3
:1001E000CD2E0010F8B500BF064B0749C91A89107B
:1001F00048BF0131491003D0044B0BB101481847E7
:10020000704700BF2C0600202C06002000000000D4
:1002100008B5054B1BB105490548AFF30080BDE8A3
:100220000840FFF7E1BF00BF0000000010080020F9
:100230009C360010F8B502F075FF4FF4FA6000F03C
:1002400093FD03F03FF91F211A2000F043F800222C
:100250001A20114600F05CF8174C00211A2000F01B
:100260006BF8164802F0A6FF2368154A03F47043A2
:1002700013600421002000F02DF840F6FF73114EAA
:10028000042733613368104ADB43104D03F0010348
:1002900013602F602368DB05FCD56168F36889B2C1
:1002A000094A4B409BB2D360094803F003F80A2087
:1002B00000F05AFDEDE700BF00000A40A036001034
:1002C00000100A4000800A4000900A4000200A40C6
:1002D000C036001010B44FF480740C4B53F820203B
:1002E00003EB8003C00082F0400200F1804003F580
:1002F000805C02F0C00200F5203003F54053CCF8DA
:10030000002041601C605DF8044B7047048003408E
:1003100010B4084CC90041EA820154F8202004EBD3
:100320008003514003F5805301F00C015DF8044B4C
:100330001960704704800340064B402203EB8003A2
:1003400019B103F500531A60704703F540531A6062
:10035000704700BF048003400FB400B583B0049C15
:10036000074802F027FF3CB105A92046019102F0A1
:1003700093FD044802F01EFF012002F0A5FD00BF1E
:10038000DC360010EC36001070B58646EFF31085B1
:1003900072B6124CD4E8CF6F0120002EFAD1C4E817
:1003A000460F002EF6D1BFF35F8F4FF0010CC80847
:1003B00001F007030CFA03F31EF800C01CEA030661
:1003C00008D14CEA030C0EF800C0C4E88F6F85F327
:1003D000108870BD1046FFF7BFFF00BFBB070020AD
:1003E000044A1078431CDBB2182B28BF102313706B
:1003F000704700BFA80500204FF0E022936843F04B
:1004000000539360704700BF0021044B03F12002AA
:10041000C3E88F1F01339342FAD17047B007002021
:100420004FF0E0234FF08032C3F80024C3F80424D7
:10043000C3F80824C3F80C24C3F81024C3F8142408
:10044000C3F81824C3F81C24C3F82024C3F82424B8
:10045000C3F82824C3F82C24C3F8302462B67047AC
:10046000012300F01F029340400941B1800000F1D8
:10047000604000F56140C0F8803103607047024A77
:10048000203042F82030704700E100E0F8B50D461A
:10049000EFF3108772B6124ED6E8CF2F0123002A51
:1004A000FAD1C6E8423F002AF6D1BFF35F8F0D4B69
:1004B00000F110049B680C4A53F82430934203D097
:1004C000994201D000F00CFF064B9B6843F8245082
:1004D000BFF35F8F0023C6E88F3F87F31088F8BD16
:1004E000B907002000ED00E0110100102DE9F04FE8
:1004F00083B0EFF3108A72B6714ED6E8CF2F012386
:10050000002AFAD1C6E8423F002AF6D1BFF35F8F36
:100510006C4B00F110089B686B4A53F828509542C9
:1005200045D08D420C4650D0684FEB1B2F2B3ED848
:1005300001214FEA50194FEA890909F1604909F58B
:10054000614900F01F0301FA03F0D9F80030C9F83F
:10055000800000EA030BBFF35F8FEFF30581C9B2A0
:10056000002934D0884505D0CDE9001000F0B8FE50
:10057000DDE9001025F0010EDEF808C0644505D164
:1005800089E0D3F808C0644531D09E469EF9062024
:1005900002EB4203002A07EB8303F2DA644561D0E1
:1005A000BBF1000F20D0C9F88001C9F80000454B0D
:1005B0009B6843F82850BFF35F8F0023C6E88F3F46
:1005C0008AF3108803B0BDE8F08F1546EFE725F0F9
:1005D000010EDEF808C06445D8D19EF90640734686
:1005E000002C08DA154646E0C9F88000DFE793F9E9
:1005F0000640002C37DB04EB440C07EB8C0C9CF81A
:100600000710DCF80820D9719A609CF90620610077
:10061000002A9A713DDBBCF804E05FEA4E5E05D526
:100620000EF5FF1E0EF5FF5E0EF11F0E6FF0070CAC
:100630000A194FEA6E5E920002EB4E0208323A440B
:10064000ACEB030C6244C2F34A026FEAC2426FEAA7
:10065000D2429A801E4B21441A7807EB81011C700C
:100660008A719DE77346D9B9FF228EF806204BF6B2
:100670000152AEF80420164C4AF6AA2294F800C0A3
:100680001946C91B49414A43120D83F806C022701E
:1006900086E7104ADDE79EF906407346002CAADA89
:1006A0000D4A0E4CD21A083AC2F30A316FEA0151D0
:1006B0006FEA115144EA5202DA80998070E700BF74
:1006C000B907002000ED00E011010010AC0500208A
:1006D0005408002001BDFFFFE605002000F8FFFFE1
:1006E000F0B5EFF30585EDB2EFF3108C72B6264945
:1006F000D1E8CF2F0123002AFAD1C1E8423F002AD6
:10070000F6D1BFF35F8F214E40F0010EB4684AF678
:10071000AA2354F825701E4A0446A41A6441634370
:100720001B0D77455BB21BD092F906409C421CD052
:1007300092F912409C4223D092F91E409C4221D053
:1007400092F92A409C4208BF03240FD0114A00248A
:10075000157813708571C1E88F4F8CF31088F0BD48
:10076000B2680D4C42F82540F0E7002404EB440445
:1007700002EB8402FF2494714BF601549480E5E768
:100780000124F3E70224F1E7B907002000ED00E0BF
:10079000AC0500205408002011010010014B0B444F
:1007A00003607047B007002070B5104C104DAC428C
:1007B0000ED2FF26236863B1FFF712FE01462046E2
:1007C000FFF7ECFFA680BFF35F8F0834AC42F1D394
:1007D00070BDFFF705FE01462046FFF7DFFF2671DB
:1007E000BFF35F8F0834AC42E4D370BD2406002011
:1007F0002C0600200D4B1A68EFF3108172B6D2E878
:10080000CFCF0120BCF1000FF9D1C2E84C0FBCF1F1
:10081000000FF4D1BFF35F8F00221B68C3E88F2F56
:1008200081F3108840BF0020002170474808002055
:100830002DE9F04F2DED028B85B0EFF30583DBB290
:10084000103B9A0818BF01224FF0010103F0030B7F
:1008500018BFAF4DAF4B08BFAF4D0BEB820253F843
:10086000226001FA0BF205F541539FEDA78B01922F
:100870005A602FE0B3881C0440F19380B379002BB9
:1008800040F0DD80B6F90820002AC0F21E817369AD
:1008900002EB420203EBC203D3E90247B7F1FF3F89
:1008A00008BFB4F1FF3F0ED005EB8B01AB6A0A69BC
:1008B000D21AE31A934205D301232A6A03FA0BF3EF
:1008C000134200D10C61284600F038FBA042B94128
:1008D000C0F2FB80B6F90830019A002B0093EA635E
:1008E000C8DBD6F8148003EB4309284608EBC90798
:1008F000D7E9024A00F022FBA04271EB0A01B9DB02
:10090000BAF1000FC0F2C380D7E90431834A9342A1
:1009100000F0ED807A88B6F9080092B242EA004011
:10092000984702460B4652EA030100F0B080002BC4
:1009300080F2D180B4EB020E6AEB030A38F9393049
:10094000C7E902EA002B95DB716903EB430201EB77
:10095000C202D2E90270BE457AEB000C4FEA4302B4
:1009600088DBB4462CF8083F06E003EB430001EBBC
:10097000C0005A00D0E90270BE451A447AEB00006C
:1009800001EBC20404DB31F93230A446002BECDA6F
:1009900028F83930009BACF80030B3881C043FF5D0
:1009A0006DAF3369EFF3108272B6D3E8CF0F012138
:1009B0000028FAD1C3E8401F0028F6D1BFF35F8FAB
:1009C0004FF6FF74B0880023316900B2B480C1E8EB
:1009D0008F3F82F310889842FFF650AF0746A94632
:1009E000746906F1080807EB470E04EBCE03D3E960
:1009F0000250B6F90830C446002B13DBB24600970C
:100A000004E034F936309446002B09DB03EB43064F
:100A100004EBC602D2E90271BD4270EB0101F0DACB
:100A20005646009FACF8007034F93E7024F83E3012
:100A3000002FD8DAB3794D46002B3FF423AF0023C3
:100A4000B371B6F9083006F10808581C3DD01A46B3
:100A5000776903E08046591C3FF416AF03EB43016E
:100A600007EBC100B0F802C01C461CF4004F9E46C4
:100A700037F93130EED0944280ED028B05D0A8F8E2
:100A80000030328927F8312034817246E3E738F8A4
:100A9000393033813369EFF3108272B6D3E8CF0F68
:100AA00001210028FAD1C3E8401F0028F6D1BFF386
:100AB0005F8F7388316928F83930009B7380002379
:100AC000C1E88F3F82F31088D4E640BF05B0BDEC8B
:100AD000028BBDE8F08F2846CDE9022300F02EFA04
:100AE000029A039B10EB020E43EB010A26E708462D
:100AF0000B69029198470028C9D00299D1E90023D7
:100B000011E700BFAFF30080FFFFFFFFFFFFFFFF14
:100B100000800B402808002000000B403108001026
:100B20002DE9F84F364C25692DB1BDE8F84F0A2163
:100B30003448FFF733BEDFF8E4800321404600F07D
:100B4000EBF90326C4F80C80FFF74AFC4FF0504C39
:100B50002D4B267003442361DCF800300F216370B5
:100B6000636961801D834FF00405A3F878504FF04E
:100B70000505A3F890504FF00605A3F8A8504FF0D4
:100B800007050E214FF6FF7208274FF00A0EA3F853
:100B9000C0504FF001094FF00C0C4FF0020B4FF01A
:100BA000090A0D204FF00B05A3F868111749A28020
:100BB000A3F808E1A160A3F848B0A3F8F0A0A3F857
:100BC0002051A3F838C1A3F85001A3F83090A3F83E
:100BD0006060A3F8D8701A800D4B3046C8F82070BA
:100BE0000C49DC60FFF752FC49463046FFF738FC01
:100BF000094B0A211F640348BDE8F84FFFF7CEBD3B
:100C0000F405002048080020B0070020FFFF100076
:100C1000280800203108001000200B4000000B4085
:100C20000146F0B50069EFF3108772B6D0E8CF5FE8
:100C30000124002DFAD1C0E8454F002DF6D1BFF3B5
:100C40005F8FB1F902E04C690EEB4E0CBEF1000F64
:100C50004FEACC05086904EBCC0C3CDB665B4E80AC
:100C60000026C0E88F6F87F31088BCF80200CCE93B
:100C700002230130C0F30E00012838BF0120059B7C
:100C8000ACF80200CCF81030069B40EA0E40CCF8DD
:100C900014300B69EFF3108272B6D3E8CFCF01277F
:100CA000BCF1000FF9D1C3E84C7FBCF1000FF4D1C7
:100CB000BFF35F8F8B886353A1F804E00B69C3E82F
:100CC0008F6F82F310880122CB68097803F50153F6
:100CD0008A405A60F0BD0023C0E88F3F87F3108838
:100CE0004FF0FF30F0BD00BF03464089B0EB214F0D
:100CF00037DD58690A1402EB420210B500EBC2005E
:100D00001C69EFF3108C72B6D4E8CFEF0122BEF16C
:100D1000000FF9D1C4E84E2FBEF1000FF4D1BFF39C
:100D20005F8F428889B292B28A4207D000221B6943
:100D3000C3E88F2F8CF31088002010BD42F40042CE
:100D400042800121002218699971C0E88F2F8CF32D
:100D500010881C78DA68084602F50153A1405960F2
:100D600010BD0020704700BF2DE9F04182B006465B
:100D700000F0ECF84FF47A7304464FF0FF306FF058
:100D80000042E6FB0341A04272EB01033ABF044676
:100D900015460D46A61F45F1FF37B44275EB070314
:100DA0003CBF0026374600F0D1F8301A67EB01014E
:100DB000012871F1000106DA2046294602B0BDE89B
:100DC000F04100F0FBB800F0C1F8864267EB01018A
:100DD00000290ADB0021174B3246009316483B4698
:100DE0000191FFF71DFF0130E6D04FF0000C134AD0
:100DF0001349536A9F4204D8906AB042DCD29F42A2
:100E0000DAD10B68EFF3108072B6D3E8CF8F5FF0C2
:100E1000010EB8F1000FF8D1C3E848EFB8F1000FA8
:100E2000F3D1BFF35F8F0B68C3E88FCF80F31088D7
:100E300020BFDEE7F5070010F405002000000B409E
:100E4000480800202DE9F04306460D4683B0EFF335
:100E50000584E4B23CB12D4B5A6AAA421CD2002050
:100E600003B0BDE8F0832A4FD7F80C9097F80080C4
:100E7000484600F063F808F1040859F828301B1AB6
:100E8000301A65EB0101984271F1000110DB20BFBF
:100E90001E4B5A6AAA42E2D314BF012400249B6A63
:100EA000B34234BF204644F0010003B0BDE8F083F4
:100EB00000F04CF8864265EB0101002914DB154B6C
:100EC0003846CDE9003432462B46FFF7A9FE011E15
:100ED0000ADD0E4B5A6AAA4216D39B6AB34211D35B
:100EE0000B48FFF701FFB6E7084B5C6AAC42B6D38C
:100EF000641B18BF01249B6AB34234BF204644F0F0
:100F00000100ADE7AA42EBD120BFE9E700000B40AA
:100F1000F4050020F507001010B4054B054C064AF7
:100F2000A04214BF1846581C5DF8044BFFF72CBABA
:100F3000D807002000800B40F03600100346416ABD
:100F40000A46986A596A8A42FAD17047034B596A2D
:100F50000A46986A596A9142FAD1704700000B40DC
:100F600030B4154A536A9C46946A536A6345FAD171
:100F7000021959414FF0000528BF01250E4B5B6A4D
:100F8000B5B15A1C08BF1A4608D04FF0FF310A46C7
:100F90000948436A8B42FCD38B4207D1064902E0E1
:100FA000486A984202D1886A9042F9D330BC7047AF
:100FB0009942EDD8F0E700BF00000B40074A536AA2
:100FC0009942FCD8994207D1044B02E05A6A9142F7
:100FD00002D19A6A9042F9D8704700BF00000B40D6
:100FE000F8B5054606200E4600F0E4F8002842D089
:100FF000354A3648954214BF4FF080624FF0006288
:10100000334B344902601A608C6832EA0404FBD125
:101010002D4B4FF48071EB1AB3FA83F32E4A5B0920
:10102000062022F8131000F0C5F8C300B3FBF6F356
:101030000133DA0920D1402601216962AA622F6BAF
:10104000FB0722D42B46002253F82C1F062003F561
:10105000805422602F6300F0ADF840F2013103228A
:101060008000B0FBF6F0EB6A83F0700303F07E03C0
:1010700023602963AA64F8BD4FF6FE718A421BD92A
:1010800022464FF6FF71154ED7E740F2013205F5C3
:1010900040531A636B6AAC6A062004EB831400F0B9
:1010A00089F80F4BA402A3FB0023DB0A0021B4FB49
:1010B000F3F0FFF755FFC5E7C3F34503114603EB14
:1010C00082161A46B9E700BF0080074000200240A0
:1010D00000300240000002404C080020C0FF3F00EA
:1010E000757B2B8F00EB400C4FEA8C0C0CF1804C85
:1010F0000CF5803CF0B51646DCF80420051FB2F56F
:10110000803F38BF4FF48032EDB238BFCCF80420B6
:10111000012D2AD94FF40067254C0CF54052176079
:1011200054F82020B2B9DCF80020012D82EA4612E2
:1011300002F0E0020CF5805632602AD94FF40061CB
:1011400044F820304FF480330CF500521160CCF895
:101150000430F0BD6769B7FBF2FE0EF1010E0EEB35
:101160004E0EBEF1030EFCD2DDE70129D2D10324DD
:101170000CF540521460DCF80820D207FBD5DCF8EF
:1011800000200B4C82EA461202F0E0020CF5805679
:1011900032600122DCF800504D4005F00305356057
:1011A00002FA01F1DCF808200A42FBD0C6E700BFD2
:1011B000DC070020014B53F820007047DC070020BB
:1011C00070B4039D04682D0345EA03451B4B002CB6
:1011D000B3FBF1F3B2FBF3F61FDB194A194B904254
:1011E00014BF4FF480424FF40042174C1A6003F5CD
:1011F00080531A60A36832EA0303FBD1212200F571
:1012000040530433016086601A600268002AFCDAE9
:101210000822C5601A6070BC7047036803F03F0382
:101220008B42DAD18368C3F30B03B342D5D1C368D1
:1012300003F4EE23AB42D0D1EDE700BF001BB700B3
:10124000008005400020024000000240012300EB26
:101250004000800000F1804000F584104160036090
:10126000704700BF0023DB8A002242E800F25202EE
:1012700001D4102118470421184700BF034AD2F8AF
:101280002838002BFBD0BFF35F8F704700000E4063
:101290000021044B044ABFF35F8F43F8041B9342C1
:1012A000F9D170470C080E402C080E4010B44FF4D2
:1012B0008D704FF42A64064A064B07491460D060CB
:1012C00019605368002BFCDA5DF8044B704700BFCF
:1012D0000080044000A0044000B0FA00704700BF46
:1012E00008B50148FFF738F81437001038B5054C39
:1012F000054DAC4204D254F8043B9847AC42FAD3B3
:1013000038BD00BF583600109836001010B407489A
:10131000074C084B084A094904601A608B6832EA96
:101320000303FBD15DF8044B704700BF002002406F
:101330007F3BEFEF00300240F6FFF3030000024076
:10134000044BDB6CB3F5004F03D14FF48022024B0A
:10135000DA64704700001150002011504FF0E02275
:10136000044BD2F8881D0B43C2F8883D10EE3004C0
:10137000704700BF030330006FF06041044B054A23
:1013800019609368DB4333F06043FAD1704700BFC4
:10139000003002400000024010B545F25320FFF734
:1013A00061FFBDE8104003460420184710B545F220
:1013B0005320FFF757FFBDE81040034601201847B0
:1013C000FFF722B81449154B70B55C1AA610442ECD
:1013D000324628BF4422124D9200284602F08AF875
:1013E000B4F5867F13D80F4AC6F1440012D02B19EA
:1013F000410803EBC101C3E9002208338B42FAD153
:10140000C30704D520F00100304445F82020064BE6
:101410009D6070BD4320F8E700000010100100102F
:10142000000000201101001000ED00E0002370B565
:101430002B4C82B0C4F88430FFF738FF0122294BCF
:10144000DA63636C012BFCD10321264A244B116320
:101450009C6B012CFCD10226052521460523224A3E
:1014600022480096FFF7ACFE21462B46204A214831
:101470000095FFF7A5FE0022042031461E4BFFF722
:1014800031FE2146284600221C4BFFF72BFE00228E
:10149000082011461A4BFFF725FE002209201146AD
:1014A000174BFFF71FFE002206201146134BFFF7D4
:1014B00019FE0022114B07201146FFF713FE0420EE
:1014C000FFF778FE00240F4BA3FB0035AD0CE0B214
:1014D00029460134FFF7BAFE062CF8D102B070BDE0
:1014E0000000014000300140002F68590000054015
:1014F000008C864700800540001BB70080D1F008B3
:10150000006CDC0283DE1B4386B003B451FC08048C
:10151000CDE9020151FC0904CDE9040151EC0A04B2
:10152000CDE9060103BCF047BDE800504EEC00C415
:10153000BDE800504EEC01C4BDE800504EEC02C4C2
:1015400000BD000000B5FFF7DFFF02E010FE30F441
:10155000F8D441EC100443EC112400EE010410EE29
:10156000010480EE200451EC1004704700B5FFF731
:10157000CBFF02E010FE30F4F8D441EC100443EC51
:10158000112400EE010410EE210480EE200451EC41
:101590003004704700B5FFF7B7FF02E010FE30F4EB
:1015A000F8D410B541EC100443EC112451EC0404C0
:1015B00053EC0524A0FB024C5FF0000EE0FB03CED1
:1015C000E1FB02CE4CEC20440024E1FB03E444ECBC
:1015D00030E480EE200451EC5004BDE81040704728
:1015E00000B5FFF791FF02E010FE30F4F8D441ECB3
:1015F000100443EC112451EC2104A0FB01126FEA0A
:10160000820252FB100052FB12F252FB1000A0EBC0
:10161000D07C53EC04245CFB13F153EC1524A1FBA8
:10162000022001FB030053EC4424A2EB000050FB1A
:101630001CF24FEA111312EB017043EBE27140EA26
:10164000515020EA915020F0070053EC7524A0FB84
:10165000023C53EC752400FB03CC01FB02CC53ECA1
:101660000424ACEB824C40EA5C70A0F1010041EC38
:10167000400480EE200451EC7004704700B5FFF781
:1016800043FF02E010FE30F4F8D440EC700400EEAA
:10169000010410EE210480EE200451EC3004704768
:1016A00000B5FFF731FF02E010FE30F4F8D440EC53
:1016B000600400EE010410EE210480EE200451ECE1
:1016C0003004704700B5FFF71FFF02E010FE30F452
:1016D000F8D441EC800400EE010410EE010480EE29
:1016E000400410EE1304704700B5FFF70DFF02E051
:1016F00010FE30F4F8D441EC800400EE010410EE4A
:10170000010480EE400410EE3304704700B5FFF78B
:10171000FBFE02E010FE30F4F8D441EC100443EC80
:10172000112400EE010410EE3004C0F30070704785
:1017300000B5FFF7E9FE02E010FE30F4F8D443EC08
:10174000102441EC110400EE010410EE30F48CBFC3
:1017500001200020704700BF00B5FFF7D5FE02E072
:1017600010FE30F4F8D443EC102441EC110400EEE8
:10177000010410EE30F42CBF01200020704700BFA0
:1017800000B5FFF7C1FE02E010FE30F4F8D441ECE2
:10179000100443EC112400EE010410EE30F42CBFD1
:1017A00001200020704700BF00B5FFF7ADFE02E04A
:1017B00010FE30F4F8D441EC100443EC112400EE98
:1017C000010410EE30F48CBF01200020704700BFF0
:1017D000704700BF2DE9F04F83B09946DDE90DABAE
:1017E0000F9B884611469A07074616D1DA453AD22A
:1017F0000C460D46ABEB0A060E4422464B464146CC
:1018000020200134B847B442F7D12946BAF1000F7D
:1018100008D1204603B0BDE8F08F0C46BAF1000FA6
:1018200010D00E4655460C9B2E449A440191721BD3
:101830004B46013D41461AF8010D3446B847002D8C
:10184000F5D101990F9B9B07E3D5651AAB45E0D90C
:1018500022464B46414620200135B8475D4504F1FC
:101860000104F5D3D5E70C46BAF1000FD9D1D0E782
:101870002DE9F04F0F9FDDF8248017F0020F0A9C2E
:101880009DF82CA00E9DDDE90C9644D1F5BBB44229
:1018900041D207F0010B04F1FF3C4FF0300EC4447D
:1018A00004E00134A6420CF801EF01D9202CF8D154
:1018B000BBF1000F00F08880A5422CD904F1FF3C59
:1018C0004FF0300EC44404E00134AC420CF801EF98
:1018D00021D0202CF8D117F0100F0ED017F4806F04
:1018E00054D1A64263D0A54261D0B9F1100F50D0B7
:1018F000B9F1020F56D0202C29D12024CDE90B5765
:10190000CDE90984BDE8F04FFFF764BF17F0010B84
:1019100034D1B442BFD317F0100F1ED017F4806F2C
:10192000E3D1002CDDD1B9F1100F63D0B9F1020F72
:1019300077D0302488F800400124BAF1000F11D18B
:101940007E0748D52B2608F804600134D6E72646E2
:1019500001344FF0300C08F806C0202CCDD0BAF17D
:10196000000FEDD02D2608F804600134CDE90B57A7
:10197000CDE90984BDE8F04FFFF72CBFBAF1000FA5
:1019800030D0B44205F1FF3585D395E7B9F1100F9A
:10199000B3D1BE063BD5202CAFD0582608F8046042
:1019A0000134A8E7202CA8D02646013407E0661EA3
:1019B000B9D0B9F1100F36D0B9F1020FC9D14FF03B
:1019C000620C08F806C096E717F0100FC5D017F4A0
:1019D000806F86D089E73E0790D5202608F80460FE
:1019E00001348BE717F00C0F00D0013DB442FFF437
:1019F00052AF61E7BC0612D4782488F80040302446
:101A000088F801400224BAF1000F99D0AAE7202CEF
:101A10003FF473AF782608F8046001346BE758246C
:101A2000EBE76224E9E717F0200FA4F1020C04D0E1
:101A30004FF0580E08F80CE08BE74FF0780E08F8DE
:101A40000CE086E700B9704701F072BB10B1D1E934
:101A500000311847704700BF2DE9F04F97B09DED5A
:101A6000207BDDE9225B0746884651EC170B249C5E
:101A700099460C920B4602468DED047B0794FFF7C6
:101A800049FE002840F0F481DDE904014FF0FF3207
:101A90006FF48013FFF750FE002840F01B81DDE952
:101AA00004014FF0FF32AC4BFFF782FE002840F0FC
:101AB000EE80DDE90401A4A3D3E90023FFF778FE5B
:101AC000002840F0D380DDE90401A1A3D3E900237D
:101AD000FFF732FE002840F0C980DDE90401002252
:101AE0000023FFF729FE002840F0E88023460D90F0
:101AF00013F4806F08BF062530212B460EAAA5F1EE
:101B0000200605E0013BB34202F8011B00F093817F
:101B1000092BF7D81E46ED1ADDE90401FFF7D6FDC3
:101B20008E4B044603EBC60393ED007B8DED087BE3
:101B3000FFF7A8FD02460B46DDE90401FFF71AFD99
:101B4000DDE90823FFF72AFD02460B46CDE90A230B
:101B5000FFF7CEFD8246FFF7A7FD02460B46DDE903
:101B60000A01FFF707FD02460B46CDE90A230022D2
:101B70007B4BFFF71DFE002800F0FE800AF1010AF2
:101B80005046FFF791FD02460B46DDE90801FFF7DD
:101B9000E7FD10B14FF0000A0134002E00F0FD8087
:101BA000681E0EABDFF8CCC118440FE0ACFB0A2175
:101BB000C90801EB8102AAEB42023032BAF1090FE7
:101BC00000F8012F40F21C818A461D46202D05F1A8
:101BD000010306F1FF36E9D12025691E0EAB6148ED
:101BE000194410E080FB0462C3EBA20303EB830201
:101BF000A4EB420404F1300201351C4601F8012F28
:101C0000002B00F0EB80202D4FEAE473EAD1079B14
:101C100003F00303012B18D1BBF1000F15D00D9B6E
:101C2000002B00F00A810BF1FF3BBBF1200F0CD918
:101C30006B1E0EA930220B4405E001355D4503F80B
:101C4000012F80F0D180202DF7D1079B0EACCDE97C
:101C500002B341464B4638460C9A01950094FFF773
:101C6000B9FD8246504617B0BDE8F08F079B9DED49
:101C7000047BCDE923B341464B4638460C9A8DEDA3
:101C8000207B229517B0BDE8F04F00F045B9610701
:101C900023464CBF042303234146219338464B4639
:101CA000079A48BF304CCDE922B258BF2F4C0C9A4E
:101CB000209417B0BDE8F04FFFF78CBDDDE9042399
:101CC00000200021FFF756FC0123CDE904010D930C
:101CD00023460DE723469C0740F0AA80BBF1040F82
:101CE00040F2A6800C9B1D461C1F04EB0B0A2A46E3
:101CF0004B46414620200135B847AA45F7D1554605
:101D00001B4C261F14F8010D2A464B464146B84786
:101D1000B44205F10105F5D1079B0AF1040A9807C1
:101D2000A0D50C9CAAEB04039B459BD952464B467D
:101D3000414620200AF1010AB847AAEB04035B459B
:101D4000F4D38FE7AFF300800000000065CDCD41F4
:101D50000000000065CDCDC1FFFFEF7F0838001007
:101D60000000E03F67666666603700106837001065
:101D700074370010CDCCCCCC0022DDE90A01634BD6
:101D8000FFF7DAFC00287FF408AFBAF1000F6AD140
:101D90000AF1010A002E7FF403AF2046FFF772FC20
:101DA00002460B46DDE90401FFF7E4FB02460B4661
:101DB000CDE904230022554BFFF7BEFC00287FF439
:101DC0000CAFDDE904010022504BFFF7F1FC0028C5
:101DD0007FF403AF013424F00104FEE6079B03F017
:101DE0000303012B00F08280202D3FF42EAF0D9BCA
:101DF0007BB32D220DEB050383F83820013524E752
:101E0000202B3FF4E9AE0EAA15441E44302204E014
:101E1000202B05F8012F3FF4DFAE9E4203F10103B2
:101E2000F6D12E220DEB060383F83820751CD4E67C
:101E3000DDF830A063E720256EE6079B13F00C0F5A
:101E400050D00BF1FF3BAB453FF6F2AE202D3FF4F7
:101E5000FCAE079B5A0701D52B22CBE71B077FF56A
:101E6000F4AE2022C6E71AF0010F3FF496AE8FE7DA
:101E7000A60734D1BBF1030F31D90C9B1D46DC1EE4
:101E800004EB0B0A2A464B46414620200135B84751
:101E90005545F7D155461E4CE61E14F8010D2A464D
:101EA0004B464146B847A64205F10105F5D1079BCF
:101EB0000AF1030A9D077FF5D5AE0C9CAAEB04033B
:101EC0009B457FF6CFAE52464B46414620200AF155
:101ED000010AB847AAEB04039B45F4D8C2E6DDF833
:101EE00030A0D7E7AB453FF6A3AEAEE6BBF1000F9F
:101EF0003FF47AAF0D9B002B9FD00BF1FF3B5D456C
:101F0000FFF496AE202D7FF474AF9EE60000E03F14
:101F10006F370010000000002DE9F04F9FB02A9E9F
:101F2000DDE92845074693460891099322462B464A
:101F3000204629460E96DDE92BA6FFF7EBFB00288D
:101F400040F0BE80204629464FF0FF32784BFFF725
:101F50002FFC002840F0B480204629464FF0FF3285
:101F60006FF48013FFF7E8FB002840F0A9802046BB
:101F7000294600220023FFF7DFFB002840F0D5812F
:101F8000CDE90A45DDE90A239046994606F4006248
:101F900016F480630F92139340F0A18058EA09036E
:101FA00040F0CA80002A40F0E38106230E9316F029
:101FB0000202109240F0D4815346042B38BF042310
:101FC0000C920422043B12920F93204629460022D1
:101FD0000023FFF7B1FB002840F0F3819DED0A7B61
:101FE0000F9B5A4603930E9B8DED007B029326F4C4
:101FF000006304933846099B0899FFF72DFD0246BC
:1020000016F0200F099B08990CBF6520452002F1AE
:102010000108B8470C9A129B16AC5D1E82EAE27367
:10202000A3EBE273D10F002622469946DFF804C1E4
:1020300001E0202E10D0CE46ACFB0930C00800EBEA
:102040008003A9EB43033033BEF1090F814606F14B
:10205000010602F8013BECD80523002006930A2371
:1020600005950094099D089C4246CDE90330CDE9D1
:1020700001612B4621463846FFF7FAFB109A80464D
:10208000D2B1A0EB0B06B24516D90BEB06022B46DC
:10209000214620200136B847B245F6D80BF1FF3370
:1020A0005344CBF10102A3EB08034244924538BFED
:1020B000002308F10108984440461FB0BDE8F08FA6
:1020C0005A463846CDE92845CDE92BA60E9C099BFA
:1020D00008992A941FB0BDE8F04FFFF7BDBC58EA3D
:1020E00009032BD1002A3FF462AF00230C930E9B0F
:1020F0000C9A934200F3B9814FF00008204629461C
:1021000000220023FFF718FB002840F013819DED0B
:102110000A7B26F4006646F480668DED287B5A46DD
:102120003846CDE92A8A099B08992C96D2E700BF48
:10213000FFFFEF7FCDCCCCCC06230E93C9F30A5022
:10214000A0F2FF30FFF79EFAC1A3D3E90023FFF707
:1021500025FAC1A3D3E90023FFF7F8F9C9F313095E
:10216000CDE90C0149F07F5140460022B24B41F4C9
:102170004011FFF7FFF9A4A3D3E90023FFF70EFAFC
:1021800002460B46DDE90C01FFF7E0F9FFF79EFA86
:102190000C90FFF777FA9EA3D3E900238046894687
:1021A000FFF7FCF90022A54BFFF7D0F9FFF78EFAF5
:1021B000034649464046129397A3D3E90023FFF70D
:1021C000EDF9804612988946FFF75CFA94A3D3E9AB
:1021D0000023FFF7E3F902460B4640464946FFF766
:1021E000C9F902460B4680468946FFF7D7F94246B1
:1021F0004B46CDE9100140464946FFF7A7F90022BA
:10220000CDE91401DDE910018D4BFFF7EDF9002256
:102210008C4BFFF79BF902460B46DDE91001FFF7F7
:10222000E3F90022884BFFF791F902460B46DDE9FE
:102230001001FFF7D9F942464B46804689460020F7
:102240004FF08041FFF796F902460B46404649465B
:10225000FFF77CF902460B46DDE91401FFF7C4F9EC
:1022600000227A4BFFF772F9129B002203F2FF3C27
:102270004FEA0C53FFF792F980468946DDE90A01DF
:1022800042464B46FFF758FA50B10C9B4046013B83
:1022900049460C9300226B4BFFF7A6F9804689460E
:1022A0000C9A43466332C62A06F00202109249464F
:1022B0000F9A2CD8002A5ED0042212920B433FF4CE
:1022C00016AFDDE90A0158A3D3E90023FFF75CFA52
:1022D00048B1DDE90A0156A3D3E90023FFF72CFA40
:1022E00000287FF404AF0E9B002B50D0139A002AD5
:1022F0007DD0013B0E93129B9A4505D9109B002B74
:1023000000F0AE800223109300230F9344E022BB21
:10231000BAF1050F4FD906F00203002B49D105236E
:102320001293AAF105030F933AE005F100430A94D2
:102330000B9327E626F4006646F4806638462C9612
:10234000DDE90A67344607F100455A46CDE92A8A95
:10235000CDE92845099B0899BCE605221292ADE714
:1023600000230222CDE90F3204220C9312922CE6B4
:102370004FF00508C2E6BAF1040F1FD9109B002BDD
:1023800078D104231293AAF104030F9304E0129B63
:102390009A4531D80E9B0F930C9B002B3FF415AE42
:1023A000DDE90A0142464B46FFF71EF9CDE90A0175
:1023B0000BE60223109305231293F1E704231293F3
:1023C000EAE7DDE90A45A0460F9B05F100490393C2
:1023D0000E9B5A46029326F4006304933846CDE9D7
:1023E0000089099B0899FFF737FB024608E6129B14
:1023F0009A4544D80F92CFE7109B8BB30E9B0F9357
:1024000002231093C8E700BF61436F63A787D23FE1
:1024100071A379094F930A401655B5BBB16B0240C1
:10242000EF39FAFE422EE63F2D431CEBE2361A3F0F
:102430000000000080842E410000F83F0000E03FD3
:1024400000002C4000002440000018400000F03F35
:10245000FB799F501344D33FB3C8608B288AC63F93
:10246000129BAAEB03030F9396E7A3EB020808F174
:10247000FF3843E604231293022310938CE7109B4A
:10248000002BEDD002230F92109385E72DE9F04F3A
:102490009BB0249C954D0A94954CB1F1000A18BF4D
:1024A000834625601878934C914608BFA34609934C
:1024B000002800F093824FF000080AE042464B46A5
:1024C000514608F10108D847099B1878002800F008
:1024D000CE80099B252803F101030993EED11C4608
:1024E0000023224612F8010BA0F1200110290AD87E
:1024F000DFE801F04009093C09090909090909381F
:10250000093409093000A0F130010929099440F289
:102510008A802A2800F0F08000252E2800F096807E
:102520000026A0F1680112292DD8DFE811F0490139
:102530002C0043012C0038012C002C002C002C0016
:102540002C002C002C0027002C002C002C002C0030
:102550002C002700144643F00103C2E7144643F061
:102560000203BEE7144643F00403BAE7144643F0FF
:102570001003B6E7144643F00803B2E70999487818
:1025800043F480730132672809927ED8242840F2F0
:10259000C180A0F12502422A00F2BC80DFE812F0DF
:1025A0005001BA00BA00BA00BA00BA00BA00BA00C4
:1025B000BA00BA00BA00BA00BA00BA00BA00BA004B
:1025C000BA00BA00BA00BA00BA00BA00BA00BA003B
:1025D000BA00BA00BA00BA00BA00BA00BA00BA002B
:1025E000190137011901BA00BA00BA00BA00BA00DD
:1025F000BA00BA00BA00BA00BA00BA00BA00BA000B
:10260000BA00BA00BA00BC01BA00BA00BA00BA00F7
:10261000BA00BA00BA00BA00BA00BC015801BC0145
:10262000190137011901002500E0013205EB85058C
:1026300000EB45051078303DA0F130010929F4D9AF
:102640002E28099202F101027FF46AAF099943F43E
:10265000806348781146A0F13006092E40F22181AE
:102660002A2800F02F8109920026013259E74446BA
:10267000C14501D809F1FF384B464246514600207A
:10268000D84720461BB0BDE8F08FA0F16902D2B256
:102690000F2A3FD8012149F241079140394040F0CB
:1026A000F3800A2A3DD0072A34D10A9D55F8042B1D
:1026B000002A00F0138143F0210012AB1F460B9358
:1026C00003E0202900F014811A4602F00F0423468B
:1026D000092C94BF303337330F2A07F8013B01F13F
:1026E00001014FEA1213ECD802E100BF8D24001063
:1026F0000C080020D11700100A99099851F8045BC2
:102700004078002DCDE90921BCBF43F002036D42A2
:10271000013202E742464B46514608F10108D847CC
:10272000D2E60A99002E51F8047B18BF3246387859
:1027300008BF4FF0FF32002800F07B83BC18A4468E
:102740003A4604E012F8014F002C00F03F81944516
:10275000F8D16446E41B5A0540F12281B44228BFF7
:10276000344613F0020300F088820223CDE90A51B7
:1027700042461D46464408E04B465146D84717F8A6
:10278000010F08F1010810B142464645F4D12B462D
:102790000B990A9D002B40F041810A9194E609991A
:1027A00048786C287FF4ECAE0A46887843F440738E
:1027B0000332E8E6099943F4007348780132E2E60F
:1027C00009994878682800F0038143F080030132BA
:1027D000D9E6672800F0D980472800F0DC8045283A
:1027E00000F0DB80CDE903530A9B0296073323F008
:1027F00007031C464246F4E802674B4651465846DA
:10280000CDE900670A94FFF787FB80465CE646281F
:1028100008BF43F02003CDE903530A9B0296073318
:1028200023F007031C464246F4E802674B46514634
:102830005846CDE900670A94FFF70EF9804643E653
:1028400042464B465146252008F10108D8473BE651
:102850000A9A990702F1040408F1010640F1C680C2
:1028600010784B4642465146D847012D88BFA844B0
:1028700040F2BD8132464B46514620200136D847B2
:102880004645F7D10A941FE66F2800F0818040F298
:102890004882782800F090810A2723F01003BC4674
:1028A00041E0002606EB860600EB4600A0F130066C
:1028B00011F8010FA0F13002092AF3D90A46099153
:1028C00001322EE6DDE9092151F8046B90780232DD
:1028D00009920A91013226EAE67622E623F01000F8
:1028E00013F4806240F021003FF4E7AE12AB0B938B
:1028F0000B9B06900093082310200593002342466B
:10290000CDE9023001914B46514658460496FEF7F8
:10291000AFFF0A958046D7E5582862D0622840F07C
:102920008F800227BC4613F4806000F0DD8023F026
:102930000D0313F4007240F081810A990F1D13F406
:10294000807140F037825C060A9A40F13B81127830
:10295000002A40F04E8123F01003002800F0498146
:10296000114612AA0B92CDE90553CDE903C6019198
:102970000B9B4246009300235146029358464B4618
:10298000FEF776FF0A9780469EE543F4006329E749
:102990000827BC46C7E743F4006343F0200321E760
:1029A00013F0020300F08E8102230A951E460D46A5
:1029B00042464B465146D84717F8010F08F1010827
:1029C0000028F5D1294633460A9DE3E6D41BC2E62A
:1029D0000A46887843F0C0030332D4E504468046B3
:1029E00046E6102743F02003BC469CE7012D40F249
:1029F000F880464608F1FF372F4432464B46514691
:102A000020200136D847BE42F7D10A9B32461878BB
:102A100051464B46D847A8440A9455E54646A54238
:102A20007FF6BBAEA844A8EB04080C4632464B46E2
:102A3000514620200136D8474645F7D12146ACE61D
:102A400013F4806200F0BB804FF4806223F0110C1D
:102A50001CF400770A9B4AD11CF4807003F1040433
:102A600040F034811CF0400F40F0A3801CF0800F38
:102A700000F0D381B3F9001081EAE177A7EBE177A9
:102A8000BFB2CB0F002900F056813A4612A90F467B
:102A9000DFF8D8E30B910A930C9501E020280FD0C2
:102AA0001546AEFB0213DB0803EB8301A2EB4101E9
:102AB0003031092D1A4600F1010007F8011BEDD84D
:102AC0000A9B0C9DCDE9055CCDE9010304960B9BA7
:102AD000424600930A235146039358464B46FEF75D
:102AE000C7FE0A948046EFE423F00C0321E7073386
:102AF00023F00703194608465B6850F8081BDF0FF0
:102B00000A9051EA030062D1002A40F09F811346E7
:102B1000114612AACDE90C7500201546CDE90E68C4
:102B2000DFF848E30B9201E020282DD05A1842F13B
:102B30000002AEFB027828F0030707EB9807D21BD0
:102B40001E469B1A61F100070C464FF0CC3101FB89
:102B500003F10EFB0711A3FB0E731944052307F0C5
:102B60000108A8FB03389B180A2E03F130034FEA33
:102B7000570774F1000405F8013B00F1010047EA32
:102B8000C1734FEA5101CFD2DDE90C75DDE90E6862
:102B90000B9B424600930A23CDE9055CCDE9010772
:102BA000049603934B4651465846FEF761FE804615
:102BB0008AE419780F4664E71027BC46B3E623F091
:102BC000100C45E71C064CBF12881268C0E60A4686
:102BD000191E01DB13469CE75242134661EB41018B
:102BE00097E713465146187842464B46D847B046B9
:102BF00048E613F0200F14BF4120612012ACA64616
:102C00000B940A93A0F10A040C9502E0202912D03B
:102C10002A46B2FBFCF50CFB1520C3B2092803F1D0
:102C200030008ABF1B19C3B2DBB262450EF8013B0C
:102C300001F10101EAD20A9B0C9D94E60A9A07323F
:102C400022F00702516852F8084B8E460A9254EA65
:102C5000010276D123F01003002872D00022114621
:102C600012AA0B92CDE905530B9B42460093002319
:102C7000CDE903C60191029394E7A54298BF0134C0
:102C80007FF674AD4FF48063CDE90A7505EB080259
:102C90001F460D46141B42464B465146202008F164
:102CA0000108D847A045F6D13B460A9F2946387807
:102CB0000B9D6C1C00283FF470AD002B3FF475AEEB
:102CC000002353E5A542DFD801346EE61968CB0F27
:102CD000002900F0A88081EAE172A2EBE17212A95A
:102CE0000846DFF888E10B910A930C9501E0202F4C
:102CF0000FD01546AEFB0213DB0803EB8301A2EBFA
:102D000041013031092D1A4607F1010700F8011B76
:102D1000EDD80A9B0C9DCDE9055CCDE901730496C5
:102D2000D5E6692823F0100C40F08C8013F4806203
:102D30003FF48EAE88E6002A3FF4A8AE12AA0B92AA
:102D4000C0E613F0200F14BF41226122002012A917
:102D50000A3ACDE90E68CDE90C35CDF844B0064607
:102D60008846754693460B91CDF840C003E0202E6F
:102D700017D004460D4629463A460023204600F067
:102D80005FFCD2B2092A02F1300388BF02EB0B03C9
:102D9000BC42DBB275F1000508F8013B06F1010603
:102DA000E5D23146DDE90C35DDE910CBDDF83C80BC
:102DB0000E9E57E70A99096851B923F0100338B1FC
:102DC00012A90B91CDE90553CDE903C60192CFE5D8
:102DD00013F0200F14BF4120612012ACA6460B94C3
:102DE0000A93A0F10A040C9502E0202A12D0294689
:102DF000B1FBFCF50CFB1510C3B2092803F1300040
:102E00008ABF1B19C3B2DBB261450EF8013B02F168
:102E10000102EAD20A9B0C9DD4E7196881EAE177A6
:102E2000A7EBE1772DE6002A3FF459AF12AA0B92E7
:102E300071E713F480640DD013F0020412D004463D
:102E40004646ECE50A276346BC466CE512AB00201B
:102E50000B939DE613F002037FF4E0AD002D7FF4A9
:102E600013AF9AE4002D7FF40DAF96E4CDCCCCCC1B
:102E700070B594461E4605460C4684B04FF0FF32AE
:102E8000634602A900960348CDE90254FFF7FEFA13
:102E900004B070BD4D1A001010B5094B84B01C6809
:102EA0004CB1034600914FF0FF3203A90548A047FB
:102EB000012004B010BD00F07DF9204604B010BD23
:102EC0000C080020451A001000BEFDE708B5FFF70A
:102ED000FBFF00BF38B5064C064DFEF707FAAC42C3
:102EE00004D254F8043B9847AC42FAD338BD00BF33
:102EF000983600109C3600100368084611461847A3
:102F00002DE9F0411546427D07468846002A46D005
:102F1000002D1DDD0B780A2B23D0012D4FF0000C66
:102F200018D04646012416F8012F21460A2A04F13A
:102F3000010422D0A542F6D165450BDC08EB050360
:102F400013F8013CA3F10D03B3FA83F35B093B755E
:102F5000BDE8F0813B68A5EB0C0108EB0C0098473D
:102F6000ECE7037D002BD8D1036802210F48984776
:102F7000012DE3D04FF0010CD3E716F8013C0D2BE7
:102F8000D8D08C4508EB0C00A1EB0C0101DA3B68B2
:102F90009847022105483B689847A446CAE7294656
:102FA00040463B68BDE8F041184700BF5838001064
:102FB0000B682DE9F041802B0D46064605D05A1CC2
:102FC0002B442A601E71BDE8F0810F4B1C68A4B130
:102FD0000E4F01F1040801E0246974B12368002B4D
:102FE000FAD03B680BB1A342F6D1204641462A688D
:102FF000FFF786FF2469002CF0D1002301222B4427
:103000002A601E71BDE8F081040800200808002035
:103010002DE9F04782B00D4691461C460646FDF765
:1030200095FF4FF0FF3C6FF000472E4A821841F1A8
:103030000003944577EB03013CBF62463B462A48B8
:1030400000F006FB6B1C804640D00CB3274F284B8A
:103050001C68B4B1B9F1000F1CD1DFF89C9001E0FD
:10306000246974B12368002BFAD0D9F800300BB171
:103070009C42F5D120462A463146B8472469002CA7
:10308000F0D1B8F1000F26D1284602B0BDE8F08794
:10309000184FDCE74FF00A0ADFF85C9002E0246981
:1030A000002CEED02368002BF9D0D9F800300BB1FA
:1030B000A342F4D12A4631462046B8470122204691
:1030C0000DF107018DF807A0B847E8E7304600F09A
:1030D00087FA0546B9E7044800F0B6FA284602B078
:1030E000BDE8F08740420F0024060020012F0010A9
:1030F00004080020F92E001008080020084A136870
:1031000023B90AE003F110021B6933B18342F9D1FC
:1031100029B9186910601961704701B110607047D2
:103120000408002008B500F0A3F9012008BD00BF85
:10313000F0B583B006468DF80700FDF707FF4FF0A6
:10314000FF356FF00044174A821841F100039542A1
:1031500074EB03013CBF23462A46134800F078FA7B
:10316000124B07461C689CB1114D01E024697CB1EB
:103170002368002BFAD02B680BB19C42F6D1204675
:1031800001220DF10701FFF7BBFE2469002CEFD1EE
:1031900017B9304603B0F0BD034800F055FA304689
:1031A00003B0F0BD40420F002406002004080020B8
:1031B0000808002038B5044600F012FA012305463D
:1031C0001A4620462946FFF723FF084B1C682CB1FE
:1031D00063682BB198472469002CF9D1284638BD83
:1031E0002469002CF4D1284638BD00BF0408002013
:1031F0002DE9F041A2B004460D46FDF7A7FE4FF0C1
:10320000FF376FF00046264ADFF8A480821841F1AC
:103210000003974276EB03013CBF3A463346214810
:1032200000F016FA00272B462246064601A91E4842
:103230000197FFF71DFE019B0546D8F80040C3B17A
:10324000002C2BD0194F01E0246974B12368002BA6
:10325000FAD03B680BB1A342F6D12046019A02A9ED
:10326000FFF74EFE2469002CF0D10023D8F800406F
:1032700001932CB1636843B198472469002CF9D1BC
:103280002EB9284622B0BDE8F0812469F1E705484F
:1032900000F0DAF9284622B0BDE8F0810194EFE7AA
:1032A00040420F0024060020B12F00100808002023
:1032B000040800200FB400B583B004A951F8040B32
:1032C0000191FFF795FF03B05DF804EB04B0704780
:1032D000B1F1000C1DDD0F4A0F4B126830B5D31A47
:1032E000B3FA83F30D240D4D5B09411E35F913E04C
:1032F0008C4411F8010F864506D093699B06FCD4D7
:1033000061451060F5D130BD93699D06FCD4146011
:10331000F3E7704750080020008007404C08002069
:10332000224BB1F1000C10B41C682EDD03460020C6
:103330001F4A591E12689369DB0617D4013093693E
:10334000DB06FCD41368844501F8013FF3D14CB18E
:1033500050211346916353F8342F02F0380203F5DD
:1033600080531A6060465DF8044B70474CB15021A1
:103370001346916353F8342F02F0380203F580535B
:103380001A6078B15DF8044B70475CB1084B50216E
:103390001A681346916353F8342F02F0380203F58C
:1033A00080531A606FF00200DDE700BFD0070020F5
:1033B00050080020054B1B6833B10021044A054822
:1033C0001268006891631847704700BFD00700205B
:1033D00050080020D4070020024B1A6893691B078D
:1033E000FCD4704750080020F8B51C4F1C4D3A68BB
:1033F0001C4EAA4214BF212522250446D6F800C03F
:1034000018B1BCF1000F10D0F8BDBCF1000FFBD01B
:10341000014690632846FDF723F828461249FDF738
:1034200065F8124B34601C60F8BD0B460F4A0E491C
:10343000306028461360FDF729F801212846FDF782
:103440000FF83A6850211346916353F8342F02F075
:10345000380203F580531A60F8BD00BF5008002001
:1034600000800740D0070020B5330010D4070020AB
:1034700010B50E490E4C0F480F4A104B00782160D2
:103480000020022112781B78FCF724FF0221012082
:10349000FCF720FF4FF4E1312068FDF7A1FDBDE806
:1034A000104001210648FFF729BE00BF0000074079
:1034B00050080020A8380010A4380010A0380010D0
:1034C0000C060020012307480749084A03600B60E7
:1034D0009368D907FCD50123054A13601368DB05FF
:1034E000FCD570470020024000300240000002403E
:1034F00000000A40844641EA000313F0030349D167
:10350000403A23D30B6803604B6843608B68836049
:10351000CB68C3600B6903614B6943618B6983614D
:10352000CB69C3610B6A03624B6A43628B6A836235
:10353000CB6AC3620B6B03634B6B43638B6B83631D
:10354000CB6BC36340304031403ADBD230320BD3D7
:103550000B6803604B6843608B688360CB68C36013
:1035600010301031103AF3D20C3205D351F8043B2D
:1035700040F8043B043AF9D2043208D0D2071CBF09
:1035800011F8013B00F8013B01D30B880380604632
:10359000704700BF082A13D38B07B1D010F0030384
:1035A000AED0C3F10403D21ADB071CBF11F8013BF4
:1035B00000F8013BA4D331F8023B20F8023B9FE71F
:1035C000043AD9D3013A11F8013B00F8013BF9D292
:1035D0000B7803704B7843708B788370604670472C
:1035E00020F0030110F00300C0F1000051F8043B8B
:1035F00000F1040C4FEACC0C6FF000021CBF22FA61
:103600000CF213434FF0010C4CEA0C2C4CEA0C4C1E
:10361000A3EB0C0222EA030212EACC1204BF51F817
:10362000043B0430F4D0C2F1000102EA0102B2FA14
:1036300082F2C2F11F0200EBD2007047F8B500BF62
:103640005FF800F0210200205FF800F0E5010020A3
:103650005FF800F07D010020991300100D13001099
:10366000411300102D140010791300109112001056
:10367000C11300107D120010A9070010C51300101F
:10368000210B0010DD120010AD1300105D130010AF
:0C369000F90300102104001011020010CA
:1036A000414443204578616D706C652C206D6561E7
:1036B000737572696E67204750494F3236000000BB
:1036C0004B4E4F422064757479206379636C653A80
:1036D0002025642F34303935000000000A2A2A2AB8
:1036E0002050414E4943202A2A2A0A000A0000009D
:1036F000486172647761726520616C61726D20252A
:103700006420616C726561647920636C61696D65C8
:103710006400000048617264206173736572740014
:1037200052656C6561736500626F6F74325F7732EA
:103730003571303830000000302E3100322E322EFC
:10374000300000007069636F325F77005461736B03
:1037500033000000417072203230203230323600A7
:10376000666E692B00000000666E69006E616E0077
:10377000666E692D00000000554152542073746438
:10378000696E000055415254207374646F75740063
:103790005541525420737464696E202F20737464F1
:1037A0006F75740006005250D3F075422037001038
:1037B00006005250E182887F2837001006005250E0
:1037C0003ABCA9113837001006005250ABB3605311
:1037D0003C37001006005250BBFF3CB64437001087
:1037E00006005250861C03024C370010060052504F
:1037F0005422A29D5437001005005250DE65F46833
:10380000DC3D001000000000000000000000F03F60
:1038100000000000000024400000000000005940AB
:103820000000000000408F40000000000088C340FE
:1038300000000000006AF8400000000080842E4173
:1038400000000000D01263410000000084D79741BF
:103850000000000065CDCD410D0A00000600525069
:1038600053B4F4A190370010080052501200000029
:08387000080052509210000004
:083878007CFCFF7F0100000051
:10388000A4370010B0370010BC370010C837001044
:10389000D4370010E0370010EC370010F837001074
:0C38A00070380010683800105C38001010
:1038AC004FF050412DE9F0410027044616461D46C5
:1038BC00D1F8008008E0C1E88F7F8CF31088304687
:1038CC00294600F035FAE8B92168EFF3108C72B68E
:1038DC00D1E8CF2F0123002AFAD1C1E8423F002AB8
:1038EC00F6D1BFF35F8F94F904302168002BE2DA34
:1038FC00002384F80480C1E88F3F8CF310880120EA
:10390C00BDE8F0810020BDE8F08100BF30B504684F
:10391C00EFF3108C72B6D4E8CFEF0125BEF1000F97
:10392C00F9D1C4E84E5FBEF1000FF4D1BFF35F8F45
:10393C0090F904400568002C10DB0021C5E88F1FAE
:10394C008CF310884FF0504595F90050A54201D1E9
:10395C00084630BDBDE83040FFF7A2BF4FF05042E3
:10396C00126800230271C5E88F3F8CF31088012088
:10397C0030BD00BF0368EFF3108272B6D3E8CFCF2F
:10398C000121BCF1000FF9D1C3E84C1FBCF1000FB1
:10399C00F4D1BFF35F8F4FF0FF0C0023016880F868
:1039AC0004C0C1E88F3F82F3108840BF704700BF4E
:1039BC0053B94AB9002908BF00281CBF4FF0FF318A
:1039CC004FF0FF3000F0B2B9ADF1080C6DE904CE48
:1039DC0000F006F8DDF804E0DDE9022304B07047DE
:1039EC002DE9F04F8C46099E04460F46002B48D11A
:1039FC008A4215465ED9B2FA82F33BB1C3F120027A
:103A0C009F409D409C4020FA02F217434FEA154E0E
:103A1C001FFA85FC220CB7FBFEF10EFB117701FBA4
:103A2C000CF042EA0742904207D9AA1801F1FF377D
:103A3C0002D2904200F258813946121AA4B2B2FB5B
:103A4C00FEF00EFB102200FB0CFC44EA0244A445E1
:103A5C000BD92C1900F1FF322CBF01270027A445EC
:103A6C0002D9002F00F04381104640EA0140A4EB3C
:103A7C000C0400211EB1DC400023C6E90043BDE864
:103A8C00F08F8B4206D90EB1C6E900010021084621
:103A9C00BDE8F08FB3FA83F1002951D16345C0F032
:103AAC001681824240F213810846002EE7D0C6E907
:103ABC000047E4E7002A00F0AF80B2FA82F3002B53
:103ACC0040F0C2808A1A4FEA154EAFB20121200C89
:103ADC00B2FBFEFC0EFB1C2240EA024207FB0CF080
:103AEC0090420ED9AA180CF1FF382CBF4FF00109E7
:103AFC004FF00009904203D9B9F1000F00F0F080AB
:103B0C00C446121AA4B2B2FBFEF00EFB102200FB4C
:103B1C0007F744EA0244A7420ED92C1900F1FF32F0
:103B2C002CBF4FF0010E4FF0000EA74203D9BEF18F
:103B3C00000F00F0D2801046E41B40EA0C4099E7DD
:103B4C00C1F120058B400CFA01F400FA01F922FABC
:103B5C0005F72CFA05FC8A401F4320FA05F3380CB4
:103B6C0023431FFA87FE1C0CBCFBF0F800FB18CC9F
:103B7C0044EA0C4408FB0EFCA4450ED93C1908F190
:103B8C00FF3A2CBF4FF0010B4FF0000BA44503D9AB
:103B9C00BBF1000F00F0B880D046A4EB0C041FFA68
:103BAC0083FCB4FBF0F300FB134403FB0EFE4CEA66
:103BBC000444A6450ED93C1903F1FF302CBF4FF03D
:103BCC00010C4FF0000CA64503D9BCF1000F00F01E
:103BDC009F80034643EA0840A4EB0E04A0FB02ECD2
:103BEC0064457346E04602D307D1F14505D2BEEBDE
:103BFC0002036CEB070C0138E0465EB1B9EB030233
:103C0C0064EB080404FA05F522FA01F3CC401D43D9
:103C1C00C6E90054002132E742082F464B08AC4657
:103C2C0042EAC172AE46C407110C92B241EA03419A
:103C3C0042EA0142B1FBF5F1B3FBF5F01F23A2EB15
:103C4C000C0241EA004142E79D40C3F12002994039
:103C5C009C402CFA02FC4FEA154E20FA02F2AFB24D
:103C6C00BCFBFEF80A430EFB18CC110C41EA0C41CC
:103C7C0008FB07FC8C4550D9691808F1FF302CBFA4
:103C8C004FF001094FF000098C4502D9B9F1000F32
:103C9C0030D0A1EB0C01B1FBFEF808FB07FC0EFBCE
:103CAC00181192B242EA0142624534D2AA1808F1C4
:103CBC00FF312CBF4FF001094FF000096245BED215
:103CCC00B9F1000FBBD1A8F102012A44B7E7841A5D
:103CDC006CEB030201201746E7E62C4402382BE775
:103CEC00ACF1020C2A440CE702392A44A5E62C4418
:103CFC000238BAE6A5EB0C0CA8F102006144B1FB4A
:103D0C00FEF808FB07FCCAE7A8F102083C4444E7AC
:103D1C00023B3C445EE7414691E7A1EB0C01404677
:103D2C00B1FBFEF808FB07FCB9E700BF704700BF0A
:103D3C005FF800F0450E00101000000000000000BD
:103D4C000000010000000000000000000000020064
:103D5C000000000000000000000003000000000054
:103D6C00000000000000FF000000000001B54868E2
:103D7C0001318E460047704609380149884701BD1C
:103D8C00E106001000000000000000000000000030
:103D9C00000000000000000030060020D1320010AE
:103DAC00D933001021330010E9330010000000005B
:0C3DBC00000100000000000000000000FA
:103DC800D3DEFFFFFE010000FF01000070C3FFFF0C
:043DD800793512AB7C
:040000051000014D99
:00000001FF
